{
  "_format": "hh-sol-artifact-1",
  "contractName": "YigittnNFT",
  "sourceName": "contracts/YigittnNFT.sol",
  "abi": [
    {
      "inputs": [],
      "stateMutability": "payable",
      "type": "constructor"
    },
    {
      "anonymous": false,
      "inputs": [
        {
          "indexed": true,
          "internalType": "address",
          "name": "owner",
          "type": "address"
        },
        {
          "indexed": true,
          "internalType": "address",
          "name": "approved",
          "type": "address"
        },
        {
          "indexed": true,
          "internalType": "uint256",
          "name": "tokenId",
          "type": "uint256"
        }
      ],
      "name": "Approval",
      "type": "event"
    },
    {
      "anonymous": false,
      "inputs": [
        {
          "indexed": true,
          "internalType": "address",
          "name": "owner",
          "type": "address"
        },
        {
          "indexed": true,
          "internalType": "address",
          "name": "operator",
          "type": "address"
        },
        {
          "indexed": false,
          "internalType": "bool",
          "name": "approved",
          "type": "bool"
        }
      ],
      "name": "ApprovalForAll",
      "type": "event"
    },
    {
      "anonymous": false,
      "inputs": [
        {
          "indexed": true,
          "internalType": "address",
          "name": "previousOwner",
          "type": "address"
        },
        {
          "indexed": true,
          "internalType": "address",
          "name": "newOwner",
          "type": "address"
        }
      ],
      "name": "OwnershipTransferred",
      "type": "event"
    },
    {
      "anonymous": false,
      "inputs": [
        {
          "indexed": true,
          "internalType": "address",
          "name": "from",
          "type": "address"
        },
        {
          "indexed": true,
          "internalType": "address",
          "name": "to",
          "type": "address"
        },
        {
          "indexed": true,
          "internalType": "uint256",
          "name": "tokenId",
          "type": "uint256"
        }
      ],
      "name": "Transfer",
      "type": "event"
    },
    {
      "inputs": [
        {
          "internalType": "address",
          "name": "to",
          "type": "address"
        },
        {
          "internalType": "uint256",
          "name": "tokenId",
          "type": "uint256"
        }
      ],
      "name": "approve",
      "outputs": [],
      "stateMutability": "nonpayable",
      "type": "function"
    },
    {
      "inputs": [
        {
          "internalType": "address",
          "name": "owner",
          "type": "address"
        }
      ],
      "name": "balanceOf",
      "outputs": [
        {
          "internalType": "uint256",
          "name": "",
          "type": "uint256"
        }
      ],
      "stateMutability": "view",
      "type": "function"
    },
    {
      "inputs": [
        {
          "internalType": "uint256",
          "name": "tokenId",
          "type": "uint256"
        }
      ],
      "name": "getApproved",
      "outputs": [
        {
          "internalType": "address",
          "name": "",
          "type": "address"
        }
      ],
      "stateMutability": "view",
      "type": "function"
    },
    {
      "inputs": [
        {
          "internalType": "address",
          "name": "owner",
          "type": "address"
        },
        {
          "internalType": "address",
          "name": "operator",
          "type": "address"
        }
      ],
      "name": "isApprovedForAll",
      "outputs": [
        {
          "internalType": "bool",
          "name": "",
          "type": "bool"
        }
      ],
      "stateMutability": "view",
      "type": "function"
    },
    {
      "inputs": [],
      "name": "isPublicMintEnabled",
      "outputs": [
        {
          "internalType": "bool",
          "name": "",
          "type": "bool"
        }
      ],
      "stateMutability": "view",
      "type": "function"
    },
    {
      "inputs": [],
      "name": "maxPerWallet",
      "outputs": [
        {
          "internalType": "uint256",
          "name": "",
          "type": "uint256"
        }
      ],
      "stateMutability": "view",
      "type": "function"
    },
    {
      "inputs": [],
      "name": "maxSupply",
      "outputs": [
        {
          "internalType": "uint256",
          "name": "",
          "type": "uint256"
        }
      ],
      "stateMutability": "view",
      "type": "function"
    },
    {
      "inputs": [
        {
          "internalType": "uint256",
          "name": "_quantity",
          "type": "uint256"
        }
      ],
      "name": "mint",
      "outputs": [],
      "stateMutability": "payable",
      "type": "function"
    },
    {
      "inputs": [],
      "name": "mintPrice",
      "outputs": [
        {
          "internalType": "uint256",
          "name": "",
          "type": "uint256"
        }
      ],
      "stateMutability": "view",
      "type": "function"
    },
    {
      "inputs": [],
      "name": "name",
      "outputs": [
        {
          "internalType": "string",
          "name": "",
          "type": "string"
        }
      ],
      "stateMutability": "view",
      "type": "function"
    },
    {
      "inputs": [],
      "name": "owner",
      "outputs": [
        {
          "internalType": "address",
          "name": "",
          "type": "address"
        }
      ],
      "stateMutability": "view",
      "type": "function"
    },
    {
      "inputs": [
        {
          "internalType": "uint256",
          "name": "tokenId",
          "type": "uint256"
        }
      ],
      "name": "ownerOf",
      "outputs": [
        {
          "internalType": "address",
          "name": "",
          "type": "address"
        }
      ],
      "stateMutability": "view",
      "type": "function"
    },
    {
      "inputs": [],
      "name": "renounceOwnership",
      "outputs": [],
      "stateMutability": "nonpayable",
      "type": "function"
    },
    {
      "inputs": [
        {
          "internalType": "address",
          "name": "from",
          "type": "address"
        },
        {
          "internalType": "address",
          "name": "to",
          "type": "address"
        },
        {
          "internalType": "uint256",
          "name": "tokenId",
          "type": "uint256"
        }
      ],
      "name": "safeTransferFrom",
      "outputs": [],
      "stateMutability": "nonpayable",
      "type": "function"
    },
    {
      "inputs": [
        {
          "internalType": "address",
          "name": "from",
          "type": "address"
        },
        {
          "internalType": "address",
          "name": "to",
          "type": "address"
        },
        {
          "internalType": "uint256",
          "name": "tokenId",
          "type": "uint256"
        },
        {
          "internalType": "bytes",
          "name": "data",
          "type": "bytes"
        }
      ],
      "name": "safeTransferFrom",
      "outputs": [],
      "stateMutability": "nonpayable",
      "type": "function"
    },
    {
      "inputs": [
        {
          "internalType": "address",
          "name": "operator",
          "type": "address"
        },
        {
          "internalType": "bool",
          "name": "approved",
          "type": "bool"
        }
      ],
      "name": "setApprovalForAll",
      "outputs": [],
      "stateMutability": "nonpayable",
      "type": "function"
    },
    {
      "inputs": [
        {
          "internalType": "string",
          "name": "_BaseURI",
          "type": "string"
        }
      ],
      "name": "setBaseURI",
      "outputs": [],
      "stateMutability": "nonpayable",
      "type": "function"
    },
    {
      "inputs": [
        {
          "internalType": "bool",
          "name": "_isPublicMintEnabled",
          "type": "bool"
        }
      ],
      "name": "setIsPublicMintEnabled",
      "outputs": [],
      "stateMutability": "nonpayable",
      "type": "function"
    },
    {
      "inputs": [
        {
          "internalType": "bytes4",
          "name": "interfaceId",
          "type": "bytes4"
        }
      ],
      "name": "supportsInterface",
      "outputs": [
        {
          "internalType": "bool",
          "name": "",
          "type": "bool"
        }
      ],
      "stateMutability": "view",
      "type": "function"
    },
    {
      "inputs": [],
      "name": "symbol",
      "outputs": [
        {
          "internalType": "string",
          "name": "",
          "type": "string"
        }
      ],
      "stateMutability": "view",
      "type": "function"
    },
    {
      "inputs": [
        {
          "internalType": "uint256",
          "name": "_tokenId",
          "type": "uint256"
        }
      ],
      "name": "tokenURI",
      "outputs": [
        {
          "internalType": "string",
          "name": "",
          "type": "string"
        }
      ],
      "stateMutability": "view",
      "type": "function"
    },
    {
      "inputs": [],
      "name": "totalSupply",
      "outputs": [
        {
          "internalType": "uint256",
          "name": "",
          "type": "uint256"
        }
      ],
      "stateMutability": "view",
      "type": "function"
    },
    {
      "inputs": [
        {
          "internalType": "address",
          "name": "from",
          "type": "address"
        },
        {
          "internalType": "address",
          "name": "to",
          "type": "address"
        },
        {
          "internalType": "uint256",
          "name": "tokenId",
          "type": "uint256"
        }
      ],
      "name": "transferFrom",
      "outputs": [],
      "stateMutability": "nonpayable",
      "type": "function"
    },
    {
      "inputs": [
        {
          "internalType": "address",
          "name": "newOwner",
          "type": "address"
        }
      ],
      "name": "transferOwnership",
      "outputs": [],
      "stateMutability": "nonpayable",
      "type": "function"
    },
    {
      "inputs": [
        {
          "internalType": "address",
          "name": "",
          "type": "address"
        }
      ],
      "name": "walletMints",
      "outputs": [
        {
          "internalType": "uint256",
          "name": "",
          "type": "uint256"
        }
      ],
      "stateMutability": "view",
      "type": "function"
    },
    {
      "inputs": [],
      "name": "withdraw",
      "outputs": [],
      "stateMutability": "nonpayable",
      "type": "function"
    },
    {
      "inputs": [],
      "name": "withdrawAddress",
      "outputs": [
        {
          "internalType": "address payable",
          "name": "",
          "type": "address"
        }
      ],
      "stateMutability": "view",
      "type": "function"
    }
  ],
  "bytecode": "0x60806040526040518060400160405280600a81526020017f5969676974746e4e4654000000000000000000000000000000000000000000008152506040518060400160405280600281526020017f5947000000000000000000000000000000000000000000000000000000000000815250816000908162000081919062000487565b50806001908162000093919062000487565b505050620000b6620000aa6200013f60201b60201c565b6200014760201b60201c565b662386f26fc1000060078190555060006008819055506103e86009819055506005600a819055506000600b60006101000a81548160ff02191690831515021790555033600d60006101000a81548173ffffffffffffffffffffffffffffffffffffffff021916908373ffffffffffffffffffffffffffffffffffffffff1602179055506200056e565b600033905090565b6000600660009054906101000a900473ffffffffffffffffffffffffffffffffffffffff16905081600660006101000a81548173ffffffffffffffffffffffffffffffffffffffff021916908373ffffffffffffffffffffffffffffffffffffffff1602179055508173ffffffffffffffffffffffffffffffffffffffff168173ffffffffffffffffffffffffffffffffffffffff167f8be0079c531659141344cd1fd0a4f28419497f9722a3daafe3b4186f6b6457e060405160405180910390a35050565b600081519050919050565b7f4e487b7100000000000000000000000000000000000000000000000000000000600052604160045260246000fd5b7f4e487b7100000000000000000000000000000000000000000000000000000000600052602260045260246000fd5b600060028204905060018216806200028f57607f821691505b602082108103620002a557620002a462000247565b5b50919050565b60008190508160005260206000209050919050565b60006020601f8301049050919050565b600082821b905092915050565b6000600883026200030f7fffffffffffffffffffffffffffffffffffffffffffffffffffffffffffffffff82620002d0565b6200031b8683620002d0565b95508019841693508086168417925050509392505050565b6000819050919050565b6000819050919050565b600062000368620003626200035c8462000333565b6200033d565b62000333565b9050919050565b6000819050919050565b620003848362000347565b6200039c62000393826200036f565b848454620002dd565b825550505050565b600090565b620003b3620003a4565b620003c081848462000379565b505050565b5b81811015620003e857620003dc600082620003a9565b600181019050620003c6565b5050565b601f82111562000437576200040181620002ab565b6200040c84620002c0565b810160208510156200041c578190505b620004346200042b85620002c0565b830182620003c5565b50505b505050565b600082821c905092915050565b60006200045c600019846008026200043c565b1980831691505092915050565b600062000477838362000449565b9150826002028217905092915050565b62000492826200020d565b67ffffffffffffffff811115620004ae57620004ad62000218565b5b620004ba825462000276565b620004c7828285620003ec565b600060209050601f831160018114620004ff5760008415620004ea578287015190505b620004f6858262000469565b86555062000566565b601f1984166200050f86620002ab565b60005b82811015620005395784890151825560018201915060208501945060208101905062000512565b8683101562000559578489015162000555601f89168262000449565b8355505b6001600288020188555050505b505050505050565b613890806200057e6000396000f3fe60806040526004361061019c5760003560e01c80636352211e116100ec578063a22cb4651161008a578063d5abeb0111610064578063d5abeb0114610593578063e985e9c5146105be578063f0293fd3146105fb578063f2fde38b146106385761019c565b8063a22cb46514610504578063b88d4fde1461052d578063c87b56dd146105565761019c565b8063715018a6116100c6578063715018a61461047b5780638da5cb5b1461049257806395d89b41146104bd578063a0712d68146104e85761019c565b80636352211e146103d65780636817c76c1461041357806370a082311461043e5761019c565b806318160ddd116101595780633ccfd60b116101335780633ccfd60b1461034257806342842e0e14610359578063453c23101461038257806355f804b3146103ad5761019c565b806318160ddd146102c55780632373ac22146102f057806323b872dd146103195761019c565b80630116bc2d146101a157806301ffc9a7146101cc57806306fdde0314610209578063081812fc14610234578063095ea7b3146102715780631581b6001461029a575b600080fd5b3480156101ad57600080fd5b506101b6610661565b6040516101c391906121b1565b60405180910390f35b3480156101d857600080fd5b506101f360048036038101906101ee9190612238565b610674565b60405161020091906121b1565b60405180910390f35b34801561021557600080fd5b5061021e610756565b60405161022b91906122f5565b60405180910390f35b34801561024057600080fd5b5061025b6004803603810190610256919061234d565b6107e8565b60405161026891906123bb565b60405180910390f35b34801561027d57600080fd5b5061029860048036038101906102939190612402565b61082e565b005b3480156102a657600080fd5b506102af610945565b6040516102bc9190612463565b60405180910390f35b3480156102d157600080fd5b506102da61096b565b6040516102e7919061248d565b60405180910390f35b3480156102fc57600080fd5b50610317600480360381019061031291906124d4565b610971565b005b34801561032557600080fd5b50610340600480360381019061033b9190612501565b610996565b005b34801561034e57600080fd5b506103576109f6565b005b34801561036557600080fd5b50610380600480360381019061037b9190612501565b610acf565b005b34801561038e57600080fd5b50610397610aef565b6040516103a4919061248d565b60405180910390f35b3480156103b957600080fd5b506103d460048036038101906103cf91906125b9565b610af5565b005b3480156103e257600080fd5b506103fd60048036038101906103f8919061234d565b610b13565b60405161040a91906123bb565b60405180910390f35b34801561041f57600080fd5b50610428610b99565b604051610435919061248d565b60405180910390f35b34801561044a57600080fd5b5061046560048036038101906104609190612606565b610b9f565b604051610472919061248d565b60405180910390f35b34801561048757600080fd5b50610490610c56565b005b34801561049e57600080fd5b506104a7610c6a565b6040516104b491906123bb565b60405180910390f35b3480156104c957600080fd5b506104d2610c94565b6040516104df91906122f5565b60405180910390f35b61050260048036038101906104fd919061234d565b610d26565b005b34801561051057600080fd5b5061052b60048036038101906105269190612633565b610f52565b005b34801561053957600080fd5b50610554600480360381019061054f91906127a3565b610f68565b005b34801561056257600080fd5b5061057d6004803603810190610578919061234d565b610fca565b60405161058a91906122f5565b60405180910390f35b34801561059f57600080fd5b506105a8611046565b6040516105b5919061248d565b60405180910390f35b3480156105ca57600080fd5b506105e560048036038101906105e09190612826565b61104c565b6040516105f291906121b1565b60405180910390f35b34801561060757600080fd5b50610622600480360381019061061d9190612606565b6110e0565b60405161062f919061248d565b60405180910390f35b34801561064457600080fd5b5061065f600480360381019061065a9190612606565b6110f8565b005b600b60009054906101000a900460ff1681565b60007f80ac58cd000000000000000000000000000000000000000000000000000000007bffffffffffffffffffffffffffffffffffffffffffffffffffffffff1916827bffffffffffffffffffffffffffffffffffffffffffffffffffffffff1916148061073f57507f5b5e139f000000000000000000000000000000000000000000000000000000007bffffffffffffffffffffffffffffffffffffffffffffffffffffffff1916827bffffffffffffffffffffffffffffffffffffffffffffffffffffffff1916145b8061074f575061074e8261117b565b5b9050919050565b60606000805461076590612895565b80601f016020809104026020016040519081016040528092919081815260200182805461079190612895565b80156107de5780601f106107b3576101008083540402835291602001916107de565b820191906000526020600020905b8154815290600101906020018083116107c157829003601f168201915b5050505050905090565b60006107f3826111e5565b6004600083815260200190815260200160002060009054906101000a900473ffffffffffffffffffffffffffffffffffffffff169050919050565b600061083982610b13565b90508073ffffffffffffffffffffffffffffffffffffffff168373ffffffffffffffffffffffffffffffffffffffff16036108a9576040517f08c379a00000000000000000000000000000000000000000000000000000000081526004016108a090612938565b60405180910390fd5b8073ffffffffffffffffffffffffffffffffffffffff166108c8611230565b73ffffffffffffffffffffffffffffffffffffffff1614806108f757506108f6816108f1611230565b61104c565b5b610936576040517f08c379a000000000000000000000000000000000000000000000000000000000815260040161092d906129ca565b60405180910390fd5b6109408383611238565b505050565b600d60009054906101000a900473ffffffffffffffffffffffffffffffffffffffff1681565b60085481565b6109796112f1565b80600b60006101000a81548160ff02191690831515021790555050565b6109a76109a1611230565b8261136f565b6109e6576040517f08c379a00000000000000000000000000000000000000000000000000000000081526004016109dd90612a5c565b60405180910390fd5b6109f1838383611404565b505050565b6109fe6112f1565b6000600d60009054906101000a900473ffffffffffffffffffffffffffffffffffffffff1673ffffffffffffffffffffffffffffffffffffffff1647604051610a4690612aad565b60006040518083038185875af1925050503d8060008114610a83576040519150601f19603f3d011682016040523d82523d6000602084013e610a88565b606091505b5050905080610acc576040517f08c379a0000000000000000000000000000000000000000000000000000000008152600401610ac390612b0e565b60405180910390fd5b50565b610aea83838360405180602001604052806000815250610f68565b505050565b600a5481565b610afd6112f1565b8181600c9182610b0e929190612ce5565b505050565b600080610b1f836116fd565b9050600073ffffffffffffffffffffffffffffffffffffffff168173ffffffffffffffffffffffffffffffffffffffff1603610b90576040517f08c379a0000000000000000000000000000000000000000000000000000000008152600401610b8790612e01565b60405180910390fd5b80915050919050565b60075481565b60008073ffffffffffffffffffffffffffffffffffffffff168273ffffffffffffffffffffffffffffffffffffffff1603610c0f576040517f08c379a0000000000000000000000000000000000000000000000000000000008152600401610c0690612e93565b60405180910390fd5b600360008373ffffffffffffffffffffffffffffffffffffffff1673ffffffffffffffffffffffffffffffffffffffff168152602001908152602001600020549050919050565b610c5e6112f1565b610c68600061173a565b565b6000600660009054906101000a900473ffffffffffffffffffffffffffffffffffffffff16905090565b606060018054610ca390612895565b80601f0160208091040260200160405190810160405280929190818152602001828054610ccf90612895565b8015610d1c5780601f10610cf157610100808354040283529160200191610d1c565b820191906000526020600020905b815481529060010190602001808311610cff57829003601f168201915b5050505050905090565b600b60009054906101000a900460ff16610d75576040517f08c379a0000000000000000000000000000000000000000000000000000000008152600401610d6c90612eff565b60405180910390fd5b60075481610d839190612f4e565b3414610dc4576040517f08c379a0000000000000000000000000000000000000000000000000000000008152600401610dbb90612fdc565b60405180910390fd5b60095481600854610dd59190612ffc565b1115610e16576040517f08c379a0000000000000000000000000000000000000000000000000000000008152600401610e0d9061307c565b60405180910390fd5b600a5481600e60003373ffffffffffffffffffffffffffffffffffffffff1673ffffffffffffffffffffffffffffffffffffffff16815260200190815260200160002054610e649190612ffc565b1115610ea5576040517f08c379a0000000000000000000000000000000000000000000000000000000008152600401610e9c9061310e565b60405180910390fd5b60005b81811015610ef95760006001600854610ec19190612ffc565b905060086000815480929190610ed69061312e565b9190505550610ee53382611800565b508080610ef19061312e565b915050610ea8565b50600e60003373ffffffffffffffffffffffffffffffffffffffff1673ffffffffffffffffffffffffffffffffffffffff1681526020019081526020016000206000815480929190610f4a9061312e565b919050555050565b610f64610f5d611230565b838361181e565b5050565b610f79610f73611230565b8361136f565b610fb8576040517f08c379a0000000000000000000000000000000000000000000000000000000008152600401610faf90612a5c565b60405180910390fd5b610fc48484848461198a565b50505050565b6060610fd5826119e6565b611014576040517f08c379a000000000000000000000000000000000000000000000000000000000815260040161100b906131c2565b60405180910390fd5b600c61101f83611a27565b6040516020016110309291906132ed565b6040516020818303038152906040529050919050565b60095481565b6000600560008473ffffffffffffffffffffffffffffffffffffffff1673ffffffffffffffffffffffffffffffffffffffff16815260200190815260200160002060008373ffffffffffffffffffffffffffffffffffffffff1673ffffffffffffffffffffffffffffffffffffffff16815260200190815260200160002060009054906101000a900460ff16905092915050565b600e6020528060005260406000206000915090505481565b6111006112f1565b600073ffffffffffffffffffffffffffffffffffffffff168173ffffffffffffffffffffffffffffffffffffffff160361116f576040517f08c379a00000000000000000000000000000000000000000000000000000000081526004016111669061338e565b60405180910390fd5b6111788161173a565b50565b60007f01ffc9a7000000000000000000000000000000000000000000000000000000007bffffffffffffffffffffffffffffffffffffffffffffffffffffffff1916827bffffffffffffffffffffffffffffffffffffffffffffffffffffffff1916149050919050565b6111ee816119e6565b61122d576040517f08c379a000000000000000000000000000000000000000000000000000000000815260040161122490612e01565b60405180910390fd5b50565b600033905090565b816004600083815260200190815260200160002060006101000a81548173ffffffffffffffffffffffffffffffffffffffff021916908373ffffffffffffffffffffffffffffffffffffffff160217905550808273ffffffffffffffffffffffffffffffffffffffff166112ab83610b13565b73ffffffffffffffffffffffffffffffffffffffff167f8c5be1e5ebec7d5bd14f71427d1e84f3dd0314c0f7b2291e5b200ac8c7c3b92560405160405180910390a45050565b6112f9611230565b73ffffffffffffffffffffffffffffffffffffffff16611317610c6a565b73ffffffffffffffffffffffffffffffffffffffff161461136d576040517f08c379a0000000000000000000000000000000000000000000000000000000008152600401611364906133fa565b60405180910390fd5b565b60008061137b83610b13565b90508073ffffffffffffffffffffffffffffffffffffffff168473ffffffffffffffffffffffffffffffffffffffff1614806113bd57506113bc818561104c565b5b806113fb57508373ffffffffffffffffffffffffffffffffffffffff166113e3846107e8565b73ffffffffffffffffffffffffffffffffffffffff16145b91505092915050565b8273ffffffffffffffffffffffffffffffffffffffff1661142482610b13565b73ffffffffffffffffffffffffffffffffffffffff161461147a576040517f08c379a00000000000000000000000000000000000000000000000000000000081526004016114719061348c565b60405180910390fd5b600073ffffffffffffffffffffffffffffffffffffffff168273ffffffffffffffffffffffffffffffffffffffff16036114e9576040517f08c379a00000000000000000000000000000000000000000000000000000000081526004016114e09061351e565b60405180910390fd5b6114f68383836001611af5565b8273ffffffffffffffffffffffffffffffffffffffff1661151682610b13565b73ffffffffffffffffffffffffffffffffffffffff161461156c576040517f08c379a00000000000000000000000000000000000000000000000000000000081526004016115639061348c565b60405180910390fd5b6004600082815260200190815260200160002060006101000a81549073ffffffffffffffffffffffffffffffffffffffff02191690556001600360008573ffffffffffffffffffffffffffffffffffffffff1673ffffffffffffffffffffffffffffffffffffffff168152602001908152602001600020600082825403925050819055506001600360008473ffffffffffffffffffffffffffffffffffffffff1673ffffffffffffffffffffffffffffffffffffffff16815260200190815260200160002060008282540192505081905550816002600083815260200190815260200160002060006101000a81548173ffffffffffffffffffffffffffffffffffffffff021916908373ffffffffffffffffffffffffffffffffffffffff160217905550808273ffffffffffffffffffffffffffffffffffffffff168473ffffffffffffffffffffffffffffffffffffffff167fddf252ad1be2c89b69c2b068fc378daa952ba7f163c4a11628f55a4df523b3ef60405160405180910390a46116f88383836001611c1b565b505050565b60006002600083815260200190815260200160002060009054906101000a900473ffffffffffffffffffffffffffffffffffffffff169050919050565b6000600660009054906101000a900473ffffffffffffffffffffffffffffffffffffffff16905081600660006101000a81548173ffffffffffffffffffffffffffffffffffffffff021916908373ffffffffffffffffffffffffffffffffffffffff1602179055508173ffffffffffffffffffffffffffffffffffffffff168173ffffffffffffffffffffffffffffffffffffffff167f8be0079c531659141344cd1fd0a4f28419497f9722a3daafe3b4186f6b6457e060405160405180910390a35050565b61181a828260405180602001604052806000815250611c21565b5050565b8173ffffffffffffffffffffffffffffffffffffffff168373ffffffffffffffffffffffffffffffffffffffff160361188c576040517f08c379a00000000000000000000000000000000000000000000000000000000081526004016118839061358a565b60405180910390fd5b80600560008573ffffffffffffffffffffffffffffffffffffffff1673ffffffffffffffffffffffffffffffffffffffff16815260200190815260200160002060008473ffffffffffffffffffffffffffffffffffffffff1673ffffffffffffffffffffffffffffffffffffffff16815260200190815260200160002060006101000a81548160ff0219169083151502179055508173ffffffffffffffffffffffffffffffffffffffff168373ffffffffffffffffffffffffffffffffffffffff167f17307eab39ab6107e8899845ad3d59bd9653f200f220920489ca2b5937696c318360405161197d91906121b1565b60405180910390a3505050565b611995848484611404565b6119a184848484611c7c565b6119e0576040517f08c379a00000000000000000000000000000000000000000000000000000000081526004016119d79061361c565b60405180910390fd5b50505050565b60008073ffffffffffffffffffffffffffffffffffffffff16611a08836116fd565b73ffffffffffffffffffffffffffffffffffffffff1614159050919050565b606060006001611a3684611e03565b01905060008167ffffffffffffffff811115611a5557611a54612678565b5b6040519080825280601f01601f191660200182016040528015611a875781602001600182028036833780820191505090505b509050600082602001820190505b600115611aea578080600190039150507f3031323334353637383961626364656600000000000000000000000000000000600a86061a8153600a8581611ade57611add61363c565b5b04945060008503611a95575b819350505050919050565b6001811115611c1557600073ffffffffffffffffffffffffffffffffffffffff168473ffffffffffffffffffffffffffffffffffffffff1614611b895780600360008673ffffffffffffffffffffffffffffffffffffffff1673ffffffffffffffffffffffffffffffffffffffff1681526020019081526020016000206000828254611b81919061366b565b925050819055505b600073ffffffffffffffffffffffffffffffffffffffff168373ffffffffffffffffffffffffffffffffffffffff1614611c145780600360008573ffffffffffffffffffffffffffffffffffffffff1673ffffffffffffffffffffffffffffffffffffffff1681526020019081526020016000206000828254611c0c9190612ffc565b925050819055505b5b50505050565b50505050565b611c2b8383611f56565b611c386000848484611c7c565b611c77576040517f08c379a0000000000000000000000000000000000000000000000000000000008152600401611c6e9061361c565b60405180910390fd5b505050565b6000611c9d8473ffffffffffffffffffffffffffffffffffffffff16612173565b15611df6578373ffffffffffffffffffffffffffffffffffffffff1663150b7a02611cc6611230565b8786866040518563ffffffff1660e01b8152600401611ce894939291906136f4565b6020604051808303816000875af1925050508015611d2457506040513d601f19601f82011682018060405250810190611d219190613755565b60015b611da6573d8060008114611d54576040519150601f19603f3d011682016040523d82523d6000602084013e611d59565b606091505b506000815103611d9e576040517f08c379a0000000000000000000000000000000000000000000000000000000008152600401611d959061361c565b60405180910390fd5b805181602001fd5b63150b7a0260e01b7bffffffffffffffffffffffffffffffffffffffffffffffffffffffff1916817bffffffffffffffffffffffffffffffffffffffffffffffffffffffff191614915050611dfb565b600190505b949350505050565b600080600090507a184f03e93ff9f4daa797ed6e38ed64bf6a1f0100000000000000008310611e61577a184f03e93ff9f4daa797ed6e38ed64bf6a1f0100000000000000008381611e5757611e5661363c565b5b0492506040810190505b6d04ee2d6d415b85acef81000000008310611e9e576d04ee2d6d415b85acef81000000008381611e9457611e9361363c565b5b0492506020810190505b662386f26fc100008310611ecd57662386f26fc100008381611ec357611ec261363c565b5b0492506010810190505b6305f5e1008310611ef6576305f5e1008381611eec57611eeb61363c565b5b0492506008810190505b6127108310611f1b576127108381611f1157611f1061363c565b5b0492506004810190505b60648310611f3e5760648381611f3457611f3361363c565b5b0492506002810190505b600a8310611f4d576001810190505b80915050919050565b600073ffffffffffffffffffffffffffffffffffffffff168273ffffffffffffffffffffffffffffffffffffffff1603611fc5576040517f08c379a0000000000000000000000000000000000000000000000000000000008152600401611fbc906137ce565b60405180910390fd5b611fce816119e6565b1561200e576040517f08c379a00000000000000000000000000000000000000000000000000000000081526004016120059061383a565b60405180910390fd5b61201c600083836001611af5565b612025816119e6565b15612065576040517f08c379a000000000000000000000000000000000000000000000000000000000815260040161205c9061383a565b60405180910390fd5b6001600360008473ffffffffffffffffffffffffffffffffffffffff1673ffffffffffffffffffffffffffffffffffffffff16815260200190815260200160002060008282540192505081905550816002600083815260200190815260200160002060006101000a81548173ffffffffffffffffffffffffffffffffffffffff021916908373ffffffffffffffffffffffffffffffffffffffff160217905550808273ffffffffffffffffffffffffffffffffffffffff16600073ffffffffffffffffffffffffffffffffffffffff167fddf252ad1be2c89b69c2b068fc378daa952ba7f163c4a11628f55a4df523b3ef60405160405180910390a461216f600083836001611c1b565b5050565b6000808273ffffffffffffffffffffffffffffffffffffffff163b119050919050565b60008115159050919050565b6121ab81612196565b82525050565b60006020820190506121c660008301846121a2565b92915050565b6000604051905090565b600080fd5b600080fd5b60007fffffffff0000000000000000000000000000000000000000000000000000000082169050919050565b612215816121e0565b811461222057600080fd5b50565b6000813590506122328161220c565b92915050565b60006020828403121561224e5761224d6121d6565b5b600061225c84828501612223565b91505092915050565b600081519050919050565b600082825260208201905092915050565b60005b8381101561229f578082015181840152602081019050612284565b60008484015250505050565b6000601f19601f8301169050919050565b60006122c782612265565b6122d18185612270565b93506122e1818560208601612281565b6122ea816122ab565b840191505092915050565b6000602082019050818103600083015261230f81846122bc565b905092915050565b6000819050919050565b61232a81612317565b811461233557600080fd5b50565b60008135905061234781612321565b92915050565b600060208284031215612363576123626121d6565b5b600061237184828501612338565b91505092915050565b600073ffffffffffffffffffffffffffffffffffffffff82169050919050565b60006123a58261237a565b9050919050565b6123b58161239a565b82525050565b60006020820190506123d060008301846123ac565b92915050565b6123df8161239a565b81146123ea57600080fd5b50565b6000813590506123fc816123d6565b92915050565b60008060408385031215612419576124186121d6565b5b6000612427858286016123ed565b925050602061243885828601612338565b9150509250929050565b600061244d8261237a565b9050919050565b61245d81612442565b82525050565b60006020820190506124786000830184612454565b92915050565b61248781612317565b82525050565b60006020820190506124a2600083018461247e565b92915050565b6124b181612196565b81146124bc57600080fd5b50565b6000813590506124ce816124a8565b92915050565b6000602082840312156124ea576124e96121d6565b5b60006124f8848285016124bf565b91505092915050565b60008060006060848603121561251a576125196121d6565b5b6000612528868287016123ed565b9350506020612539868287016123ed565b925050604061254a86828701612338565b9150509250925092565b600080fd5b600080fd5b600080fd5b60008083601f84011261257957612578612554565b5b8235905067ffffffffffffffff81111561259657612595612559565b5b6020830191508360018202830111156125b2576125b161255e565b5b9250929050565b600080602083850312156125d0576125cf6121d6565b5b600083013567ffffffffffffffff8111156125ee576125ed6121db565b5b6125fa85828601612563565b92509250509250929050565b60006020828403121561261c5761261b6121d6565b5b600061262a848285016123ed565b91505092915050565b6000806040838503121561264a576126496121d6565b5b6000612658858286016123ed565b9250506020612669858286016124bf565b9150509250929050565b600080fd5b7f4e487b7100000000000000000000000000000000000000000000000000000000600052604160045260246000fd5b6126b0826122ab565b810181811067ffffffffffffffff821117156126cf576126ce612678565b5b80604052505050565b60006126e26121cc565b90506126ee82826126a7565b919050565b600067ffffffffffffffff82111561270e5761270d612678565b5b612717826122ab565b9050602081019050919050565b82818337600083830152505050565b6000612746612741846126f3565b6126d8565b90508281526020810184848401111561276257612761612673565b5b61276d848285612724565b509392505050565b600082601f83011261278a57612789612554565b5b813561279a848260208601612733565b91505092915050565b600080600080608085870312156127bd576127bc6121d6565b5b60006127cb878288016123ed565b94505060206127dc878288016123ed565b93505060406127ed87828801612338565b925050606085013567ffffffffffffffff81111561280e5761280d6121db565b5b61281a87828801612775565b91505092959194509250565b6000806040838503121561283d5761283c6121d6565b5b600061284b858286016123ed565b925050602061285c858286016123ed565b9150509250929050565b7f4e487b7100000000000000000000000000000000000000000000000000000000600052602260045260246000fd5b600060028204905060018216806128ad57607f821691505b6020821081036128c0576128bf612866565b5b50919050565b7f4552433732313a20617070726f76616c20746f2063757272656e74206f776e6560008201527f7200000000000000000000000000000000000000000000000000000000000000602082015250565b6000612922602183612270565b915061292d826128c6565b604082019050919050565b6000602082019050818103600083015261295181612915565b9050919050565b7f4552433732313a20617070726f76652063616c6c6572206973206e6f7420746f60008201527f6b656e206f776e6572206f7220617070726f76656420666f7220616c6c000000602082015250565b60006129b4603d83612270565b91506129bf82612958565b604082019050919050565b600060208201905081810360008301526129e3816129a7565b9050919050565b7f4552433732313a2063616c6c6572206973206e6f7420746f6b656e206f776e6560008201527f72206f7220617070726f76656400000000000000000000000000000000000000602082015250565b6000612a46602d83612270565b9150612a51826129ea565b604082019050919050565b60006020820190508181036000830152612a7581612a39565b9050919050565b600081905092915050565b50565b6000612a97600083612a7c565b9150612aa282612a87565b600082019050919050565b6000612ab882612a8a565b9150819050919050565b7f5769746864726177206661696c65640000000000000000000000000000000000600082015250565b6000612af8600f83612270565b9150612b0382612ac2565b602082019050919050565b60006020820190508181036000830152612b2781612aeb565b9050919050565b600082905092915050565b60008190508160005260206000209050919050565b60006020601f8301049050919050565b600082821b905092915050565b600060088302612b9b7fffffffffffffffffffffffffffffffffffffffffffffffffffffffffffffffff82612b5e565b612ba58683612b5e565b95508019841693508086168417925050509392505050565b6000819050919050565b6000612be2612bdd612bd884612317565b612bbd565b612317565b9050919050565b6000819050919050565b612bfc83612bc7565b612c10612c0882612be9565b848454612b6b565b825550505050565b600090565b612c25612c18565b612c30818484612bf3565b505050565b5b81811015612c5457612c49600082612c1d565b600181019050612c36565b5050565b601f821115612c9957612c6a81612b39565b612c7384612b4e565b81016020851015612c82578190505b612c96612c8e85612b4e565b830182612c35565b50505b505050565b600082821c905092915050565b6000612cbc60001984600802612c9e565b1980831691505092915050565b6000612cd58383612cab565b9150826002028217905092915050565b612cef8383612b2e565b67ffffffffffffffff811115612d0857612d07612678565b5b612d128254612895565b612d1d828285612c58565b6000601f831160018114612d4c5760008415612d3a578287013590505b612d448582612cc9565b865550612dac565b601f198416612d5a86612b39565b60005b82811015612d8257848901358255600182019150602085019450602081019050612d5d565b86831015612d9f5784890135612d9b601f891682612cab565b8355505b6001600288020188555050505b50505050505050565b7f4552433732313a20696e76616c696420746f6b656e2049440000000000000000600082015250565b6000612deb601883612270565b9150612df682612db5565b602082019050919050565b60006020820190508181036000830152612e1a81612dde565b9050919050565b7f4552433732313a2061646472657373207a65726f206973206e6f74206120766160008201527f6c6964206f776e65720000000000000000000000000000000000000000000000602082015250565b6000612e7d602983612270565b9150612e8882612e21565b604082019050919050565b60006020820190508181036000830152612eac81612e70565b9050919050565b7f5075626c6963206d696e74206973206e6f7420656e61626c6564000000000000600082015250565b6000612ee9601a83612270565b9150612ef482612eb3565b602082019050919050565b60006020820190508181036000830152612f1881612edc565b9050919050565b7f4e487b7100000000000000000000000000000000000000000000000000000000600052601160045260246000fd5b6000612f5982612317565b9150612f6483612317565b9250828202612f7281612317565b91508282048414831517612f8957612f88612f1f565b5b5092915050565b7f496e73756666696369656e74204554482073656e740000000000000000000000600082015250565b6000612fc6601583612270565b9150612fd182612f90565b602082019050919050565b60006020820190508181036000830152612ff581612fb9565b9050919050565b600061300782612317565b915061301283612317565b925082820190508082111561302a57613029612f1f565b5b92915050565b7f4d617820737570706c7920686173206265656e20726561636865640000000000600082015250565b6000613066601b83612270565b915061307182613030565b602082019050919050565b6000602082019050818103600083015261309581613059565b9050919050565b7f4d6178204e465473207065722077616c6c657420686173206265656e2072656160008201527f6368656400000000000000000000000000000000000000000000000000000000602082015250565b60006130f8602483612270565b91506131038261309c565b604082019050919050565b60006020820190508181036000830152613127816130eb565b9050919050565b600061313982612317565b91507fffffffffffffffffffffffffffffffffffffffffffffffffffffffffffffffff820361316b5761316a612f1f565b5b600182019050919050565b7f4e6f6e6578697374656e7420746f6b656e000000000000000000000000000000600082015250565b60006131ac601183612270565b91506131b782613176565b602082019050919050565b600060208201905081810360008301526131db8161319f565b9050919050565b600081905092915050565b600081546131fa81612895565b61320481866131e2565b9450600182166000811461321f576001811461323457613267565b60ff1983168652811515820286019350613267565b61323d85612b39565b60005b8381101561325f57815481890152600182019150602081019050613240565b838801955050505b50505092915050565b600061327b82612265565b61328581856131e2565b9350613295818560208601612281565b80840191505092915050565b7f2e6a736f6e000000000000000000000000000000000000000000000000000000600082015250565b60006132d76005836131e2565b91506132e2826132a1565b600582019050919050565b60006132f982856131ed565b91506133058284613270565b9150613310826132ca565b91508190509392505050565b7f4f776e61626c653a206e6577206f776e657220697320746865207a65726f206160008201527f6464726573730000000000000000000000000000000000000000000000000000602082015250565b6000613378602683612270565b91506133838261331c565b604082019050919050565b600060208201905081810360008301526133a78161336b565b9050919050565b7f4f776e61626c653a2063616c6c6572206973206e6f7420746865206f776e6572600082015250565b60006133e4602083612270565b91506133ef826133ae565b602082019050919050565b60006020820190508181036000830152613413816133d7565b9050919050565b7f4552433732313a207472616e736665722066726f6d20696e636f72726563742060008201527f6f776e6572000000000000000000000000000000000000000000000000000000602082015250565b6000613476602583612270565b91506134818261341a565b604082019050919050565b600060208201905081810360008301526134a581613469565b9050919050565b7f4552433732313a207472616e7366657220746f20746865207a65726f2061646460008201527f7265737300000000000000000000000000000000000000000000000000000000602082015250565b6000613508602483612270565b9150613513826134ac565b604082019050919050565b60006020820190508181036000830152613537816134fb565b9050919050565b7f4552433732313a20617070726f766520746f2063616c6c657200000000000000600082015250565b6000613574601983612270565b915061357f8261353e565b602082019050919050565b600060208201905081810360008301526135a381613567565b9050919050565b7f4552433732313a207472616e7366657220746f206e6f6e20455243373231526560008201527f63656976657220696d706c656d656e7465720000000000000000000000000000602082015250565b6000613606603283612270565b9150613611826135aa565b604082019050919050565b60006020820190508181036000830152613635816135f9565b9050919050565b7f4e487b7100000000000000000000000000000000000000000000000000000000600052601260045260246000fd5b600061367682612317565b915061368183612317565b925082820390508181111561369957613698612f1f565b5b92915050565b600081519050919050565b600082825260208201905092915050565b60006136c68261369f565b6136d081856136aa565b93506136e0818560208601612281565b6136e9816122ab565b840191505092915050565b600060808201905061370960008301876123ac565b61371660208301866123ac565b613723604083018561247e565b818103606083015261373581846136bb565b905095945050505050565b60008151905061374f8161220c565b92915050565b60006020828403121561376b5761376a6121d6565b5b600061377984828501613740565b91505092915050565b7f4552433732313a206d696e7420746f20746865207a65726f2061646472657373600082015250565b60006137b8602083612270565b91506137c382613782565b602082019050919050565b600060208201905081810360008301526137e7816137ab565b9050919050565b7f4552433732313a20746f6b656e20616c7265616479206d696e74656400000000600082015250565b6000613824601c83612270565b915061382f826137ee565b602082019050919050565b6000602082019050818103600083015261385381613817565b905091905056fea2646970667358221220854a0ab000ada48a5cdec3121c9f516709fefedf3fa10d76e60220a8d4536b9464736f6c63430008110033",
  "linkReferences": {},
  "deployedLinkReferences": {}
}